{
  "contractName": "TokenSwap",
  "abi": [
    {
      "inputs": [
        {
          "internalType": "address",
          "name": "_token1",
          "type": "address"
        },
        {
          "internalType": "address",
          "name": "_token2",
          "type": "address"
        },
        {
          "internalType": "uint256",
          "name": "_rateToken1ToToken2",
          "type": "uint256"
        }
      ],
      "stateMutability": "nonpayable",
      "type": "constructor"
    },
    {
      "inputs": [],
      "name": "rateToken1ToToken2",
      "outputs": [
        {
          "internalType": "uint256",
          "name": "",
          "type": "uint256"
        }
      ],
      "stateMutability": "view",
      "type": "function"
    },
    {
      "inputs": [],
      "name": "token1",
      "outputs": [
        {
          "internalType": "address",
          "name": "",
          "type": "address"
        }
      ],
      "stateMutability": "view",
      "type": "function"
    },
    {
      "inputs": [],
      "name": "token2",
      "outputs": [
        {
          "internalType": "address",
          "name": "",
          "type": "address"
        }
      ],
      "stateMutability": "view",
      "type": "function"
    },
    {
      "inputs": [
        {
          "internalType": "uint256",
          "name": "_amountToken1",
          "type": "uint256"
        }
      ],
      "name": "swapToken1ForToken2",
      "outputs": [],
      "stateMutability": "nonpayable",
      "type": "function"
    },
    {
      "inputs": [
        {
          "internalType": "uint256",
          "name": "_amountToken2",
          "type": "uint256"
        }
      ],
      "name": "swapToken2ForToken1",
      "outputs": [],
      "stateMutability": "nonpayable",
      "type": "function"
    }
  ],
  "bytecode": "0x608060405234801561000f575f80fd5b5060405161082338038061082383398181016040528101906100319190610150565b825f806101000a81548173ffffffffffffffffffffffffffffffffffffffff021916908373ffffffffffffffffffffffffffffffffffffffff1602179055508160015f6101000a81548173ffffffffffffffffffffffffffffffffffffffff021916908373ffffffffffffffffffffffffffffffffffffffff160217905550806002819055505050506101a0565b5f80fd5b5f73ffffffffffffffffffffffffffffffffffffffff82169050919050565b5f6100ec826100c3565b9050919050565b6100fc816100e2565b8114610106575f80fd5b50565b5f81519050610117816100f3565b92915050565b5f819050919050565b61012f8161011d565b8114610139575f80fd5b50565b5f8151905061014a81610126565b92915050565b5f805f60608486031215610167576101666100bf565b5b5f61017486828701610109565b935050602061018586828701610109565b92505060406101968682870161013c565b9150509250925092565b610676806101ad5f395ff3fe608060405234801561000f575f80fd5b5060043610610055575f3560e01c806325be124e1461005957806348e3018114610077578063b209acc314610093578063d21220a7146100b1578063fa7fbf21146100cf575b5f80fd5b6100616100eb565b60405161006e9190610416565b60405180910390f35b610091600480360381019061008c9190610466565b610110565b005b61009b61025f565b6040516100a891906104a0565b60405180910390f35b6100b9610265565b6040516100c69190610416565b60405180910390f35b6100e960048036038101906100e49190610466565b610288565b005b60015f9054906101000a900473ffffffffffffffffffffffffffffffffffffffff1681565b5f6002548261011f91906104e6565b90505f8054906101000a900473ffffffffffffffffffffffffffffffffffffffff1673ffffffffffffffffffffffffffffffffffffffff166323b872dd3330856040518463ffffffff1660e01b815260040161017d93929190610527565b6020604051808303815f875af1158015610199573d5f803e3d5ffd5b505050506040513d601f19601f820116820180604052508101906101bd9190610591565b5060015f9054906101000a900473ffffffffffffffffffffffffffffffffffffffff1673ffffffffffffffffffffffffffffffffffffffff1663a9059cbb33836040518363ffffffff1660e01b815260040161021a9291906105bc565b6020604051808303815f875af1158015610236573d5f803e3d5ffd5b505050506040513d601f19601f8201168201806040525081019061025a9190610591565b505050565b60025481565b5f8054906101000a900473ffffffffffffffffffffffffffffffffffffffff1681565b5f600254826102979190610610565b905060015f9054906101000a900473ffffffffffffffffffffffffffffffffffffffff1673ffffffffffffffffffffffffffffffffffffffff166323b872dd3330856040518463ffffffff1660e01b81526004016102f793929190610527565b6020604051808303815f875af1158015610313573d5f803e3d5ffd5b505050506040513d601f19601f820116820180604052508101906103379190610591565b505f8054906101000a900473ffffffffffffffffffffffffffffffffffffffff1673ffffffffffffffffffffffffffffffffffffffff1663a9059cbb33836040518363ffffffff1660e01b81526004016103929291906105bc565b6020604051808303815f875af11580156103ae573d5f803e3d5ffd5b505050506040513d601f19601f820116820180604052508101906103d29190610591565b505050565b5f73ffffffffffffffffffffffffffffffffffffffff82169050919050565b5f610400826103d7565b9050919050565b610410816103f6565b82525050565b5f6020820190506104295f830184610407565b92915050565b5f80fd5b5f819050919050565b61044581610433565b811461044f575f80fd5b50565b5f813590506104608161043c565b92915050565b5f6020828403121561047b5761047a61042f565b5b5f61048884828501610452565b91505092915050565b61049a81610433565b82525050565b5f6020820190506104b35f830184610491565b92915050565b7f4e487b71000000000000000000000000000000000000000000000000000000005f52601160045260245ffd5b5f6104f082610433565b91506104fb83610433565b925082820261050981610433565b915082820484148315176105205761051f6104b9565b5b5092915050565b5f60608201905061053a5f830186610407565b6105476020830185610407565b6105546040830184610491565b949350505050565b5f8115159050919050565b6105708161055c565b811461057a575f80fd5b50565b5f8151905061058b81610567565b92915050565b5f602082840312156105a6576105a561042f565b5b5f6105b38482850161057d565b91505092915050565b5f6040820190506105cf5f830185610407565b6105dc6020830184610491565b9392505050565b7f4e487b71000000000000000000000000000000000000000000000000000000005f52601260045260245ffd5b5f61061a82610433565b915061062583610433565b925082610635576106346105e3565b5b82820490509291505056fea264697066735822122052d9ba0b569e4ee69708d3bbdcbdd6a6a1b2aee9010f56bf1abbd8fdc2bbe41064736f6c63430008190033",
  "immutableReferences": {},
  "source": "// SPDX-License-Identifier: MIT\npragma solidity ^0.8.0;\n\ninterface IERC20 {\n    function transferFrom(address sender, address recipient, uint256 amount) external returns (bool);\n    function approve(address spender, uint256 amount) external returns (bool);\n    function transfer(address recipient, uint256 amount) external returns (bool);\n    function balanceOf(address account) external view returns (uint256);\n}\n\ncontract TokenSwap {\n    address public token1;\n    address public token2;\n    uint256 public rateToken1ToToken2;\n\n    constructor(address _token1, address _token2, uint256 _rateToken1ToToken2) {\n        token1 = _token1;\n        token2 = _token2;\n        rateToken1ToToken2 = _rateToken1ToToken2;\n    }\n\n    function swapToken1ForToken2(uint256 _amountToken1) public {\n        uint256 amountToken2 = _amountToken1 * rateToken1ToToken2;\n        IERC20(token1).transferFrom(msg.sender, address(this), _amountToken1);\n        IERC20(token2).transfer(msg.sender, amountToken2);\n    }\n\n    function swapToken2ForToken1(uint256 _amountToken2) public {\n        uint256 amountToken1 = _amountToken2 / rateToken1ToToken2;\n        IERC20(token2).transferFrom(msg.sender, address(this), _amountToken2);\n        IERC20(token1).transfer(msg.sender, amountToken1);\n    }\n}\n",
  "sourcePath": "/Users/burakkozluca/Desktop/web3/contracts/contracts/Swap.sol",
  "compiler": {
    "name": "solc",
    "version": "0.8.25+commit.b61c2a91.Emscripten.clang"
  },
  "schemaVersion": "3.4.16",
  "updatedAt": "2024-05-02T14:24:22.786Z",
  "devdoc": {
    "kind": "dev",
    "methods": {},
    "version": 1
  },
  "userdoc": {
    "kind": "user",
    "methods": {},
    "version": 1
  }
}